{
  "contractName": "Government",
  "abi": [
    {
      "inputs": [],
      "stateMutability": "nonpayable",
      "type": "constructor"
    },
    {
      "anonymous": false,
      "inputs": [
        {
          "indexed": true,
          "internalType": "uint256",
          "name": "tenderId",
          "type": "uint256"
        },
        {
          "indexed": true,
          "internalType": "address",
          "name": "winner",
          "type": "address"
        },
        {
          "indexed": false,
          "internalType": "uint256",
          "name": "amount",
          "type": "uint256"
        }
      ],
      "name": "BidAccepted",
      "type": "event"
    },
    {
      "anonymous": false,
      "inputs": [
        {
          "indexed": true,
          "internalType": "uint256",
          "name": "tenderId",
          "type": "uint256"
        },
        {
          "indexed": true,
          "internalType": "address",
          "name": "bidder",
          "type": "address"
        },
        {
          "indexed": false,
          "internalType": "uint256",
          "name": "amount",
          "type": "uint256"
        }
      ],
      "name": "BidPlaced",
      "type": "event"
    },
    {
      "anonymous": false,
      "inputs": [
        {
          "indexed": true,
          "internalType": "uint256",
          "name": "id",
          "type": "uint256"
        }
      ],
      "name": "TenderClosed",
      "type": "event"
    },
    {
      "anonymous": false,
      "inputs": [
        {
          "indexed": true,
          "internalType": "uint256",
          "name": "id",
          "type": "uint256"
        },
        {
          "indexed": false,
          "internalType": "string",
          "name": "location",
          "type": "string"
        },
        {
          "indexed": false,
          "internalType": "uint256",
          "name": "deadline",
          "type": "uint256"
        }
      ],
      "name": "TenderCreated",
      "type": "event"
    },
    {
      "inputs": [
        {
          "internalType": "uint256",
          "name": "",
          "type": "uint256"
        },
        {
          "internalType": "address",
          "name": "",
          "type": "address"
        }
      ],
      "name": "bids",
      "outputs": [
        {
          "internalType": "uint256",
          "name": "",
          "type": "uint256"
        }
      ],
      "stateMutability": "view",
      "type": "function"
    },
    {
      "inputs": [],
      "name": "government",
      "outputs": [
        {
          "internalType": "address",
          "name": "",
          "type": "address"
        }
      ],
      "stateMutability": "view",
      "type": "function"
    },
    {
      "inputs": [],
      "name": "tenderCounter",
      "outputs": [
        {
          "internalType": "uint256",
          "name": "",
          "type": "uint256"
        }
      ],
      "stateMutability": "view",
      "type": "function"
    },
    {
      "inputs": [
        {
          "internalType": "uint256",
          "name": "",
          "type": "uint256"
        }
      ],
      "name": "tenders",
      "outputs": [
        {
          "internalType": "uint256",
          "name": "id",
          "type": "uint256"
        },
        {
          "internalType": "string",
          "name": "location",
          "type": "string"
        },
        {
          "internalType": "string",
          "name": "description",
          "type": "string"
        },
        {
          "internalType": "uint256",
          "name": "deadline",
          "type": "uint256"
        },
        {
          "internalType": "bool",
          "name": "isOpen",
          "type": "bool"
        },
        {
          "internalType": "address",
          "name": "winningBidder",
          "type": "address"
        },
        {
          "internalType": "uint256",
          "name": "winningBidAmount",
          "type": "uint256"
        }
      ],
      "stateMutability": "view",
      "type": "function"
    },
    {
      "inputs": [
        {
          "internalType": "string",
          "name": "_location",
          "type": "string"
        },
        {
          "internalType": "string",
          "name": "_description",
          "type": "string"
        },
        {
          "internalType": "uint256",
          "name": "_deadline",
          "type": "uint256"
        }
      ],
      "name": "createTender",
      "outputs": [],
      "stateMutability": "nonpayable",
      "type": "function"
    },
    {
      "inputs": [
        {
          "internalType": "uint256",
          "name": "_id",
          "type": "uint256"
        }
      ],
      "name": "closeTender",
      "outputs": [],
      "stateMutability": "nonpayable",
      "type": "function"
    },
    {
      "inputs": [
        {
          "internalType": "uint256",
          "name": "_tenderId",
          "type": "uint256"
        },
        {
          "internalType": "uint256",
          "name": "_amount",
          "type": "uint256"
        }
      ],
      "name": "placeBid",
      "outputs": [],
      "stateMutability": "nonpayable",
      "type": "function"
    },
    {
      "inputs": [
        {
          "internalType": "uint256",
          "name": "_tenderId",
          "type": "uint256"
        },
        {
          "internalType": "address",
          "name": "_winner",
          "type": "address"
        },
        {
          "internalType": "uint256",
          "name": "_amount",
          "type": "uint256"
        }
      ],
      "name": "acceptBid",
      "outputs": [],
      "stateMutability": "nonpayable",
      "type": "function"
    },
    {
      "inputs": [],
      "name": "getActiveTenders",
      "outputs": [
        {
          "components": [
            {
              "internalType": "uint256",
              "name": "id",
              "type": "uint256"
            },
            {
              "internalType": "string",
              "name": "location",
              "type": "string"
            },
            {
              "internalType": "string",
              "name": "description",
              "type": "string"
            },
            {
              "internalType": "uint256",
              "name": "deadline",
              "type": "uint256"
            },
            {
              "internalType": "bool",
              "name": "isOpen",
              "type": "bool"
            },
            {
              "internalType": "address",
              "name": "winningBidder",
              "type": "address"
            },
            {
              "internalType": "uint256",
              "name": "winningBidAmount",
              "type": "uint256"
            }
          ],
          "internalType": "struct Government.Tender[]",
          "name": "",
          "type": "tuple[]"
        }
      ],
      "stateMutability": "view",
      "type": "function"
    },
    {
      "inputs": [
        {
          "internalType": "uint256",
          "name": "_tenderId",
          "type": "uint256"
        },
        {
          "internalType": "address",
          "name": "_bidder",
          "type": "address"
        }
      ],
      "name": "getBidAmount",
      "outputs": [
        {
          "internalType": "uint256",
          "name": "",
          "type": "uint256"
        }
      ],
      "stateMutability": "view",
      "type": "function"
    }
  ],
  "bytecode": "0x608060405234801561001057600080fd5b50336000806101000a81548173ffffffffffffffffffffffffffffffffffffffff021916908373ffffffffffffffffffffffffffffffffffffffff160217905550611bda806100606000396000f3fe608060405234801561001057600080fd5b506004361061009d5760003560e01c8063465e1def11610066578063465e1def1461014857806357c90de51461017e578063907dbc1d1461019a578063af8ee37f146101b6578063b47089b4146101d25761009d565b8062cda3da146100a25780632672f526146100be5780632ac6c785146100dc57806330d2210c146100fa5780633f1ffcec14610118575b600080fd5b6100bc60048036038101906100b79190611173565b610202565b005b6100c66103ab565b6040516100d391906116e7565b60405180910390f35b6100e46103cf565b6040516100f19190611702565b60405180910390f35b610102610727565b60405161010f9190611874565b60405180910390f35b610132600480360381019061012d919061119c565b61072d565b60405161013f9190611874565b60405180910390f35b610162600480360381019061015d9190611173565b610752565b604051610175979695949392919061188f565b60405180910390f35b61019860048036038101906101939190611227565b6108d1565b005b6101b460048036038101906101af91906110f4565b610a77565b005b6101d060048036038101906101cb91906111d8565b610cc7565b005b6101ec60048036038101906101e7919061119c565b610f0f565b6040516101f99190611874565b60405180910390f35b60008054906101000a900473ffffffffffffffffffffffffffffffffffffffff1673ffffffffffffffffffffffffffffffffffffffff163373ffffffffffffffffffffffffffffffffffffffff1614610290576040517f08c379a000000000000000000000000000000000000000000000000000000000815260040161028790611854565b60405180910390fd5b6002600082815260200190815260200160002060040160009054906101000a900460ff166102f3576040517f08c379a00000000000000000000000000000000000000000000000000000000081526004016102ea906117d4565b60405180910390fd5b600260008281526020019081526020016000206003015442101561034c576040517f08c379a0000000000000000000000000000000000000000000000000000000008152600401610343906117f4565b60405180910390fd5b60006002600083815260200190815260200160002060040160006101000a81548160ff021916908315150217905550807feb8198b13f5862980cc6bb061e17c178e471a7bc05092d2bb1c97e8662ceca9b60405160405180910390a250565b60008054906101000a900473ffffffffffffffffffffffffffffffffffffffff1681565b6060600080600190505b600154811161042d576002600082815260200190815260200160002060040160009054906101000a900460ff161561041a57818061041690611a8f565b9250505b808061042590611a8f565b9150506103d9565b5060008167ffffffffffffffff811115610470577f4e487b7100000000000000000000000000000000000000000000000000000000600052604160045260246000fd5b6040519080825280602002602001820160405280156104a957816020015b610496610f6a565b81526020019060019003908161048e5790505b509050600080600190505b600154811161071d576002600082815260200190815260200160002060040160009054906101000a900460ff161561070a57600260008281526020019081526020016000206040518060e00160405290816000820154815260200160018201805461051e90611a5d565b80601f016020809104026020016040519081016040528092919081815260200182805461054a90611a5d565b80156105975780601f1061056c57610100808354040283529160200191610597565b820191906000526020600020905b81548152906001019060200180831161057a57829003601f168201915b505050505081526020016002820180546105b090611a5d565b80601f01602080910402602001604051908101604052809291908181526020018280546105dc90611a5d565b80156106295780601f106105fe57610100808354040283529160200191610629565b820191906000526020600020905b81548152906001019060200180831161060c57829003601f168201915b50505050508152602001600382015481526020016004820160009054906101000a900460ff161515151581526020016004820160019054906101000a900473ffffffffffffffffffffffffffffffffffffffff1673ffffffffffffffffffffffffffffffffffffffff1673ffffffffffffffffffffffffffffffffffffffff1681526020016005820154815250508383815181106106f0577f4e487b7100000000000000000000000000000000000000000000000000000000600052603260045260246000fd5b6020026020010181905250818061070690611a8f565b9250505b808061071590611a8f565b9150506104b4565b5081935050505090565b60015481565b6003602052816000526040600020602052806000526040600020600091509150505481565b600260205280600052604060002060009150905080600001549080600101805461077b90611a5d565b80601f01602080910402602001604051908101604052809291908181526020018280546107a790611a5d565b80156107f45780601f106107c9576101008083540402835291602001916107f4565b820191906000526020600020905b8154815290600101906020018083116107d757829003601f168201915b50505050509080600201805461080990611a5d565b80601f016020809104026020016040519081016040528092919081815260200182805461083590611a5d565b80156108825780601f1061085757610100808354040283529160200191610882565b820191906000526020600020905b81548152906001019060200180831161086557829003601f168201915b5050505050908060030154908060040160009054906101000a900460ff16908060040160019054906101000a900473ffffffffffffffffffffffffffffffffffffffff16908060050154905087565b6002600083815260200190815260200160002060040160009054906101000a900460ff16610934576040517f08c379a000000000000000000000000000000000000000000000000000000000815260040161092b906117b4565b60405180910390fd5b6002600083815260200190815260200160002060030154421061098c576040517f08c379a000000000000000000000000000000000000000000000000000000000815260040161098390611794565b60405180910390fd5b600081116109cf576040517f08c379a00000000000000000000000000000000000000000000000000000000081526004016109c690611754565b60405180910390fd5b806003600084815260200190815260200160002060003373ffffffffffffffffffffffffffffffffffffffff1673ffffffffffffffffffffffffffffffffffffffff168152602001908152602001600020819055503373ffffffffffffffffffffffffffffffffffffffff16827f0e54eff26401bf69b81b26f60bd85ef47f5d85275c1d268d84f68d6897431c4783604051610a6b9190611874565b60405180910390a35050565b60008054906101000a900473ffffffffffffffffffffffffffffffffffffffff1673ffffffffffffffffffffffffffffffffffffffff163373ffffffffffffffffffffffffffffffffffffffff1614610b05576040517f08c379a0000000000000000000000000000000000000000000000000000000008152600401610afc90611854565b60405180910390fd5b428111610b47576040517f08c379a0000000000000000000000000000000000000000000000000000000008152600401610b3e90611814565b60405180910390fd5b60016000815480929190610b5a90611a8f565b91905055506040518060e001604052806001548152602001848152602001838152602001828152602001600115158152602001600073ffffffffffffffffffffffffffffffffffffffff1681526020016000815250600260006001548152602001908152602001600020600082015181600001556020820151816001019080519060200190610bea929190610fbf565b506040820151816002019080519060200190610c07929190610fbf565b506060820151816003015560808201518160040160006101000a81548160ff02191690831515021790555060a08201518160040160016101000a81548173ffffffffffffffffffffffffffffffffffffffff021916908373ffffffffffffffffffffffffffffffffffffffff16021790555060c082015181600501559050506001547fe3264e09f5c48d11366432789be1c8c1e381f96116271dbff757066288b1a61b8483604051610cba929190611724565b60405180910390a2505050565b60008054906101000a900473ffffffffffffffffffffffffffffffffffffffff1673ffffffffffffffffffffffffffffffffffffffff163373ffffffffffffffffffffffffffffffffffffffff1614610d55576040517f08c379a0000000000000000000000000000000000000000000000000000000008152600401610d4c90611854565b60405180910390fd5b6002600084815260200190815260200160002060040160009054906101000a900460ff1615610db9576040517f08c379a0000000000000000000000000000000000000000000000000000000008152600401610db090611834565b60405180910390fd5b806003600085815260200190815260200160002060008473ffffffffffffffffffffffffffffffffffffffff1673ffffffffffffffffffffffffffffffffffffffff1681526020019081526020016000205414610e4b576040517f08c379a0000000000000000000000000000000000000000000000000000000008152600401610e4290611774565b60405180910390fd5b816002600085815260200190815260200160002060040160016101000a81548173ffffffffffffffffffffffffffffffffffffffff021916908373ffffffffffffffffffffffffffffffffffffffff1602179055508060026000858152602001908152602001600020600501819055508173ffffffffffffffffffffffffffffffffffffffff16837f91a721693afff25f233ac308edbd2fa15ad7d4dfacdd164dd4e8c57ab72f4ae983604051610f029190611874565b60405180910390a3505050565b60006003600084815260200190815260200160002060008373ffffffffffffffffffffffffffffffffffffffff1673ffffffffffffffffffffffffffffffffffffffff16815260200190815260200160002054905092915050565b6040518060e0016040528060008152602001606081526020016060815260200160008152602001600015158152602001600073ffffffffffffffffffffffffffffffffffffffff168152602001600081525090565b828054610fcb90611a5d565b90600052602060002090601f016020900481019282610fed5760008555611034565b82601f1061100657805160ff1916838001178555611034565b82800160010185558215611034579182015b82811115611033578251825591602001919060010190611018565b5b5090506110419190611045565b5090565b5b8082111561105e576000816000905550600101611046565b5090565b60006110756110708461193d565b61190c565b90508281526020810184848401111561108d57600080fd5b611098848285611a1b565b509392505050565b6000813590506110af81611b76565b92915050565b600082601f8301126110c657600080fd5b81356110d6848260208601611062565b91505092915050565b6000813590506110ee81611b8d565b92915050565b60008060006060848603121561110957600080fd5b600084013567ffffffffffffffff81111561112357600080fd5b61112f868287016110b5565b935050602084013567ffffffffffffffff81111561114c57600080fd5b611158868287016110b5565b9250506040611169868287016110df565b9150509250925092565b60006020828403121561118557600080fd5b6000611193848285016110df565b91505092915050565b600080604083850312156111af57600080fd5b60006111bd858286016110df565b92505060206111ce858286016110a0565b9150509250929050565b6000806000606084860312156111ed57600080fd5b60006111fb868287016110df565b935050602061120c868287016110a0565b925050604061121d868287016110df565b9150509250925092565b6000806040838503121561123a57600080fd5b6000611248858286016110df565b9250506020611259858286016110df565b9150509250929050565b600061126f8383611626565b905092915050565b611280816119d3565b82525050565b61128f816119d3565b82525050565b60006112a08261197d565b6112aa81856119a0565b9350836020820285016112bc8561196d565b8060005b858110156112f857848403895281516112d98582611263565b94506112e483611993565b925060208a019950506001810190506112c0565b50829750879550505050505092915050565b611313816119e5565b82525050565b611322816119e5565b82525050565b600061133382611988565b61133d81856119b1565b935061134d818560208601611a2a565b61135681611b65565b840191505092915050565b600061136c82611988565b61137681856119c2565b9350611386818560208601611a2a565b61138f81611b65565b840191505092915050565b60006113a76021836119c2565b91507f42696420616d6f756e74206d7573742062652067726561746572207468616e2060008301527f30000000000000000000000000000000000000000000000000000000000000006020830152604082019050919050565b600061140d6012836119c2565b91507f496e76616c69642062696420616d6f756e7400000000000000000000000000006000830152602082019050919050565b600061144d6013836119c2565b91507f446561646c696e652068617320706173736564000000000000000000000000006000830152602082019050919050565b600061148d6012836119c2565b91507f54656e646572206973206e6f74206f70656e00000000000000000000000000006000830152602082019050919050565b60006114cd6015836119c2565b91507f54656e64657220616c726561647920636c6f73656400000000000000000000006000830152602082019050919050565b600061150d6018836119c2565b91507f446561646c696e65206e6f7420726561636865642079657400000000000000006000830152602082019050919050565b600061154d601e836119c2565b91507f446561646c696e65206d75737420626520696e207468652066757475726500006000830152602082019050919050565b600061158d601b836119c2565b91507f54656e646572206d75737420626520636c6f73656420666972737400000000006000830152602082019050919050565b60006115cd6027836119c2565b91507f4f6e6c7920676f7665726e6d656e742063616e20706572666f726d207468697360008301527f20616374696f6e000000000000000000000000000000000000000000000000006020830152604082019050919050565b600060e08301600083015161163e60008601826116c9565b50602083015184820360208601526116568282611328565b915050604083015184820360408601526116708282611328565b915050606083015161168560608601826116c9565b506080830151611698608086018261130a565b5060a08301516116ab60a0860182611277565b5060c08301516116be60c08601826116c9565b508091505092915050565b6116d281611a11565b82525050565b6116e181611a11565b82525050565b60006020820190506116fc6000830184611286565b92915050565b6000602082019050818103600083015261171c8184611295565b905092915050565b6000604082019050818103600083015261173e8185611361565b905061174d60208301846116d8565b9392505050565b6000602082019050818103600083015261176d8161139a565b9050919050565b6000602082019050818103600083015261178d81611400565b9050919050565b600060208201905081810360008301526117ad81611440565b9050919050565b600060208201905081810360008301526117cd81611480565b9050919050565b600060208201905081810360008301526117ed816114c0565b9050919050565b6000602082019050818103600083015261180d81611500565b9050919050565b6000602082019050818103600083015261182d81611540565b9050919050565b6000602082019050818103600083015261184d81611580565b9050919050565b6000602082019050818103600083015261186d816115c0565b9050919050565b600060208201905061188960008301846116d8565b92915050565b600060e0820190506118a4600083018a6116d8565b81810360208301526118b68189611361565b905081810360408301526118ca8188611361565b90506118d960608301876116d8565b6118e66080830186611319565b6118f360a0830185611286565b61190060c08301846116d8565b98975050505050505050565b6000604051905081810181811067ffffffffffffffff8211171561193357611932611b36565b5b8060405250919050565b600067ffffffffffffffff82111561195857611957611b36565b5b601f19601f8301169050602081019050919050565b6000819050602082019050919050565b600081519050919050565b600081519050919050565b6000602082019050919050565b600082825260208201905092915050565b600082825260208201905092915050565b600082825260208201905092915050565b60006119de826119f1565b9050919050565b60008115159050919050565b600073ffffffffffffffffffffffffffffffffffffffff82169050919050565b6000819050919050565b82818337600083830152505050565b60005b83811015611a48578082015181840152602081019050611a2d565b83811115611a57576000848401525b50505050565b60006002820490506001821680611a7557607f821691505b60208210811415611a8957611a88611b07565b5b50919050565b6000611a9a82611a11565b91507fffffffffffffffffffffffffffffffffffffffffffffffffffffffffffffffff821415611acd57611acc611ad8565b5b600182019050919050565b7f4e487b7100000000000000000000000000000000000000000000000000000000600052601160045260246000fd5b7f4e487b7100000000000000000000000000000000000000000000000000000000600052602260045260246000fd5b7f4e487b7100000000000000000000000000000000000000000000000000000000600052604160045260246000fd5b6000601f19601f8301169050919050565b611b7f816119d3565b8114611b8a57600080fd5b50565b611b9681611a11565b8114611ba157600080fd5b5056fea26469706673582212200d96618c1b96813550278f6f4d54d428aba5a1e2a51b2b7c23f7e68bd3d8501f64736f6c63430008000033",
  "immutableReferences": {},
  "source": "// SPDX-License-Identifier: MIT\r\npragma solidity ^0.8.0;\r\n\r\ncontract Government {\r\n    address public government;\r\n    uint public tenderCounter;\r\n    \r\n    struct Tender {\r\n        uint id;\r\n        string location;\r\n        string description;\r\n        uint deadline;\r\n        bool isOpen;\r\n        address winningBidder;\r\n        uint winningBidAmount;\r\n    }\r\n    \r\n    mapping(uint => Tender) public tenders;\r\n    mapping(uint => mapping(address => uint)) public bids; // tenderId => operator => amount\r\n    \r\n    event TenderCreated(uint indexed id, string location, uint deadline);\r\n    event TenderClosed(uint indexed id);\r\n    event BidPlaced(uint indexed tenderId, address indexed bidder, uint amount);\r\n    event BidAccepted(uint indexed tenderId, address indexed winner, uint amount);\r\n    \r\n    modifier onlyGovernment() {\r\n        require(msg.sender == government, \"Only government can perform this action\");\r\n        _;\r\n    }\r\n    \r\n    constructor() {\r\n        government = msg.sender;\r\n    }\r\n    \r\n    function createTender(\r\n        string memory _location,\r\n        string memory _description,\r\n        uint _deadline\r\n    ) public onlyGovernment {\r\n        require(_deadline > block.timestamp, \"Deadline must be in the future\");\r\n        \r\n        tenderCounter++;\r\n        tenders[tenderCounter] = Tender({\r\n            id: tenderCounter,\r\n            location: _location,\r\n            description: _description,\r\n            deadline: _deadline,\r\n            isOpen: true,\r\n            winningBidder: address(0),\r\n            winningBidAmount: 0\r\n        });\r\n        \r\n        emit TenderCreated(tenderCounter, _location, _deadline);\r\n    }\r\n    \r\n    function closeTender(uint _id) public onlyGovernment {\r\n        require(tenders[_id].isOpen, \"Tender already closed\");\r\n        require(block.timestamp >= tenders[_id].deadline, \"Deadline not reached yet\");\r\n        \r\n        tenders[_id].isOpen = false;\r\n        emit TenderClosed(_id);\r\n    }\r\n    \r\n    function placeBid(uint _tenderId, uint _amount) public {\r\n        require(tenders[_tenderId].isOpen, \"Tender is not open\");\r\n        require(block.timestamp < tenders[_tenderId].deadline, \"Deadline has passed\");\r\n        require(_amount > 0, \"Bid amount must be greater than 0\");\r\n        \r\n        bids[_tenderId][msg.sender] = _amount;\r\n        emit BidPlaced(_tenderId, msg.sender, _amount);\r\n    }\r\n    \r\n    function acceptBid(uint _tenderId, address _winner, uint _amount) public onlyGovernment {\r\n        require(!tenders[_tenderId].isOpen, \"Tender must be closed first\");\r\n        require(bids[_tenderId][_winner] == _amount, \"Invalid bid amount\");\r\n        \r\n        tenders[_tenderId].winningBidder = _winner;\r\n        tenders[_tenderId].winningBidAmount = _amount;\r\n        emit BidAccepted(_tenderId, _winner, _amount);\r\n    }\r\n    \r\n    function getActiveTenders() public view returns (Tender[] memory) {\r\n        uint count = 0;\r\n        for (uint i = 1; i <= tenderCounter; i++) {\r\n            if (tenders[i].isOpen) {\r\n                count++;\r\n            }\r\n        }\r\n        \r\n        Tender[] memory activeTenders = new Tender[](count);\r\n        uint index = 0;\r\n        for (uint i = 1; i <= tenderCounter; i++) {\r\n            if (tenders[i].isOpen) {\r\n                activeTenders[index] = tenders[i];\r\n                index++;\r\n            }\r\n        }\r\n        \r\n        return activeTenders;\r\n    }\r\n    \r\n    function getBidAmount(uint _tenderId, address _bidder) public view returns (uint) {\r\n        return bids[_tenderId][_bidder];\r\n    }\r\n}",
  "sourcePath": "C:\\Users\\msi\\app_drone\\contracts\\Government.sol",
  "compiler": {
    "name": "solc",
    "version": "0.8.0+commit.c7dfd78e.Emscripten.clang"
  },
  "schemaVersion": "3.4.16",
  "updatedAt": "2025-04-02T15:36:06.076Z",
  "devdoc": {
    "kind": "dev",
    "methods": {},
    "version": 1
  },
  "userdoc": {
    "kind": "user",
    "methods": {},
    "version": 1
  }
}